:020000040000FA
:10000000480900209D010000B30E0000AB0E000067
:1000100000000000000000000000000000000000E0
:10002000000000000000000000000000711200004D
:100030000000000000000000B50E00007512000076
:1000400079140000B10E000000000000A10D0000B6
:1000500073120000A30D0000A50D0000A70D000005
:100060000000000000000000000000000000000090
:10007000370C0000390C00007514000077140000E4
:10008000A90E0000000000000000000000000000B9
:10009000C10100003D0C0000B50C0000AF0E0000D7
:1000A00000000000C101000000000000C9120000B3
:1000B000CB120000000000003B0C0000000000001C
:1000C00000F002F800F03EF80CA030C80838241800
:1000D0002D18A246671EAB4654465D46AC4201D180
:1000E00000F030F87E460F3E0FCCB6460126334274
:1000F00000D0FB1AA246AB4633431847302100001C
:1001000050210000103A02D378C878C1FAD85207BB
:1001100001D330C830C101D504680C6070470000BD
:100120000023002400250026103A01D378C1FBD813
:10013000520700D330C100D50B6070471FB51FBDFB
:1001400010B510BD00F016FD1146FFF7F7FF01F0E6
:1001500057FC00F02EFD03B4FFF7F2FF03BC00F0E4
:1001600063FD000070B505460C46164602E00FCC54
:100170000FC5103E102EFAD2082E02D303CC03C5B1
:10018000083E042E07D301CC01C5361F03E02178B9
:100190002970641C6D1C761EF9D270BD0C480D4A86
:1001A000002100A1814200D902440B4802600B48A3
:1001B00080470B480047FEE7FEE7FEE7FEE7FEE765
:1001C000FEE7000007480849084A094B704700004D
:1001D000000000200000000008ED00E08D1200008B
:1001E000C100000048050020480900204807002001
:1001F00048070020034670B502460B439B070FD10A
:100200000E4CE60100E008C208C91D1B9D433542A3
:10021000F9D0D9B21170521C00290DD01B0AF8E791
:100220000B78491C1370521C002B05D00B78491C0D
:100230001370521C002BF3D170BD000001010101AD
:10024000F8B5042A2CD3830712D00B78491C03700D
:10025000401C521E83070BD00B78491C0370401CB6
:10026000521E830704D00B78491C0370401C521E99
:100270008B079B0F05D0C91ADF002023DE1B08C99E
:100280000AE0FFF76FFFF8BD1D4608C9FD401C4698
:10029000B4402C4310C0121F042AF5D2F308C91A27
:1002A000521EF0D40B78491C0370401C521EEAD435
:1002B0000B78491C0370401C012AE4D409780170B2
:1002C000F8BD002203098B422CD3030A8B4211D3C1
:1002D00000239C464EE003460B433CD400224308D7
:1002E0008B4231D303098B421CD3030A8B4201D3C7
:1002F00094463FE0C3098B4201D3CB01C01A52415F
:1003000083098B4201D38B01C01A524143098B42AE
:1003100001D34B01C01A524103098B4201D30B0197
:10032000C01A5241C3088B4201D3CB00C01A5241BC
:1003300083088B4201D38B00C01A524143088B4281
:1003400001D34B00C01A5241411A00D2014652411A
:10035000104670475DE0CA0F00D04942031000D339
:100360004042534000229C4603098B422DD3030A8E
:100370008B4212D3FC22890112BA030A8B420CD39E
:10038000890192118B4208D3890192118B4204D3C7
:1003900089013AD0921100E08909C3098B4201D347
:1003A000CB01C01A524183098B4201D38B01C01A81
:1003B000524143098B4201D34B01C01A52410309F8
:1003C0008B4201D30B01C01A5241C3088B4201D3A7
:1003D000CB00C01A524183088B4201D38B00C01A54
:1003E0005241D9D243088B4201D34B00C01A52412B
:1003F000411A00D20146634652415B10104601D3B8
:100400004042002B00D54942704763465B1000D341
:10041000404201B50020C046C04602BD704770474B
:10042000704700000246C80FC00781434B0030B53B
:100430004B405B009B0D20D01923DB06C91801231C
:100440001B05994220DB0324A40704251346AB4077
:100450000BD3002B04D1EB0613409B00E34204D4E2
:1004600001246407002312195941FF231B059942F7
:100470000BD2C9000143500F09E0CB0204D5014360
:100480000803024305D0054830BDFF21C9050843D4
:1004900030BD084607210905884330BD0000C07FF4
:1004A000F0B50C46871A9C410D46861A9D4103D231
:1004B000C01BA141D21963410D0D1F0DC94EEC1B8C
:1004C000AE435CD07F057F0D0026002F51D02D0557
:1004D000AC46A943DD020123ED0A1B051D43202381
:1004E0001B1B24D41746E740381871412F46E740BC
:1004F000CC199D402818314661410C0D27D161442B
:100500009A4013D50023401C594152000ED1400897
:10051000400001224B005205D34207D3052040077B
:10052000C14201D5B04900E0B0493046F0BD6B0092
:10053000002A00D001229A181F23203C1B1B01D542
:10054000002302E0E540281871410C0DD7D00124AA
:1005500024050919C407CD0740084908E40F2843BA
:100560006144002CD5D00024401C61419A40D0D178
:10057000CDE76A05520DD9D1C90FC907D5E79C4D02
:100580004E00002801D0012400E0002434195F004F
:10059000002A01D0012600E00026BE19954FAC428A
:1005A0000CD8AE420AD8B44206D001256D05EC4203
:1005B000BCD010461946F0BD9942FCD00020394607
:1005C000F0BDF0B51FB40C460F46811A9F41254679
:1005D000861A9D4106D20125ED076F40401ABC41A5
:1005E00052187B41210D1E0D8D1BAC467D4D8D4358
:1005F0007ED075056D0D7CD00D05AE46AC431B035A
:100600001B0B794D52429D41202366469B1B14D300
:100610001746F740381800260090744160462F4670
:100620000741E41900989D402818664116D4714688
:1006300071189A4025D5012320E093182A466A4173
:100640005200002B00D0521C1E23203E9B1B002B6F
:1006500061DD3541EE1728186641E8D5001876416E
:100660005B1C9A4000D3401C4B05F3181524E34053
:1006700010D3002B52D071467118D30FC01802D37B
:10068000491C05B0F0BD0123DB079A42F9D14008AF
:100690004000F6E701225205B21801D1002853D0DC
:1006A0000123CC0ADB029943891E002A08D1020CDF
:1006B00003D0020C0004103902E002460020203969
:1006C0000023550B05D112020823550B01D152010D
:1006D0000D23550C01D112011B1DD50C01D1920027
:1006E0009B1C150D01D152005B1C2025EE1A01E068
:1006F0002CE022E00546F54015439840CA1AE10770
:1007000069181305C918002ABBDA03204007081826
:10071000C10FC9070FE071466118B2E7F107400841
:100720000843711071444A000CD001235B059A42C2
:10073000A7D2C90FC9070020A3E74905490D26D153
:10074000002001E00028F4D100219AE7284D66003E
:10075000002801D0012100E0002171185F00002A6B
:1007600001D0012600E00026BE19224FA94210D870
:10077000AE420ED8B14208D001256D05E94206D03F
:100780001946A802414010467BE79C4201D0214611
:1007900077E70020394674E710B50C465C4005D574
:1007A0000124E4076340FFF70CFF10BDFFF778FE5C
:1007B00010BD30B40C465C4004D50124E40763400E
:1007C00030BC6DE630BCFCE670B50124E407614046
:1007D0000D465D4002D4FFF763FE70BD6340FFF736
:1007E000F0FE70BDFF0700000000F0FF0000F07F8A
:1007F0000000E0FF0000F87F0346CA02400D10B57C
:1008000010430A1504D00124E4072043002A05DB25
:100810000A4CA21A04D4D040FF2A00DD002010BDEB
:100820004A00002B01D0012000E000201018012216
:100830005205D042F2D8C817C04310BD1E040000B4
:100840000121C9050123411842001B06D3185B0E84
:100850000AD0C1100722D206891840075242D1425D
:1008600001D5520089187047090208D50146002AAF
:1008700003D0C10FC90700207047104670474202DD
:1008800002D0002002497047072109050143F4E71F
:100890000000F87FF0B5FF252D04C609C209FF2727
:1008A00004462E400137CB093E4348402A402B40A6
:1008B0000746002A6BD0002B69D0AA4267D0AB4212
:1008C00065D0002800DA32460125ED0529432C4386
:1008D00009022002090AD21A4B0C7F24E31A434C66
:1008E000000A7C44E35C7D242404121914145B0088
:1008F000A218884201D3521C00E0400049420C4635
:100900005C4324115C43DB016415E318040A5C4377
:10091000C502200D0C4644436419250A5D43230398
:10092000EC0C0D46654300030019EB184C42A34242
:1009300001D35B18401CD4052018002B07D05B00A6
:10094000C91804D3401C002901D1400840003F21B0
:1009500089048A4209D3002A08DC1106090F04D051
:10096000032149074018C00FC007F0BD0122410014
:10097000120689187F2252069142F6D205214907B4
:10098000C84201D59010F0BDFF20C005F0BD002F7A
:1009900000DA32461648AA4207D2AB4205D2190203
:1009A000090E17D0F80FC007F0BDFF2563002D0614
:1009B000AB42F9D84900A942F6D8AB4201D1A942CD
:1009C000F2D0A94201D1002101E061004908D0051F
:1009D0000843F0BD1102090EFBD0FF200243D005F1
:1009E000F0BD0A460146104654E700000419000015
:1009F0000000C07F10B501469E240002CA15A3075F
:100A0000002A02D01843002A04DBA21A002A0CDDB7
:100A1000D04010BD1206120E01D140004008A21AAB
:100A200003D4D04040420028F3DDFF2248001206E4
:100A3000904201D9002010BDC817C043584010BDD6
:100A40000102C21504D00123DB071943002A0ADB87
:100A50009E239A1A02D40846D0407047FF224100D4
:100A60001206914201D900207047C017C043704759
:100A70001F22030C02D10F2200041CD0030E01D14F
:100A80000002083A030F01D10001121F830F01D1A8
:100A90008000921E002801DB4000521ED205511832
:100AA000021251181922904004D3491C002801D188
:100AB0004908490008467047C10FC90700D04042A5
:100AC000012292071143D3E701218907D0E70000F3
:100AD00010B5FF231B0644009C421DD84C009C42CD
:100AE0001AD80346124A0B4307D4401A02D3EFF335
:100AF000008010BDEFF3008010BD081A06D2EFF39E
:100B0000008001219043C907084302E0EFF3008011
:100B1000904380F3008810BD0D231B041A4204D0BB
:100B20001146002000F006F810BD00F01BF810BDC3
:100B300000000090C80212D54803400F002804D0DE
:100B4000C803C043012188407047EFF300800001D3
:100B5000000903210907084380F30088704700203B
:100B60007047000010B5024800F02BF810BD0000DF
:100B70000000C07F754600F053F8AE460500694698
:100B80005346C008C000854618B020B5FFF71AFBD1
:100B900060BC00274908B6460026C0C5C0C5C0C510
:100BA000C0C5C0C5C0C5C0C5C0C5403D49008D4613
:100BB000704710B50446C046C0462046FFF7CBFA42
:100BC00010BD10B50C461107090F092904D00A29D8
:100BD0000AD008290CD104E011460820FFF7AAFF2B
:100BE00006E0510606D501E0510601D50120C007F7
:100BF000214610BDD10607D501010909CC084907D6
:100C0000000E0006044309E0410F20024907000AD4
:100C10000143200E00061D22D14101430846E7E7AB
:100C200000487047E804002001491820ABBEFEE7E9
:100C300026000200704770477047704710B50121C9
:100C4000054800F083F8002805D00121024800F093
:100C50006DF801F057F810BD004901401CB512486D
:100C6000406B0121090308430F494863684600F0BF
:100C700091F80121490268460180002141800B4919
:100C800081800021C1806946094800F073F8012283
:100C90001146074800F063F8152000F0DBFD012144
:100CA000034800F047F81CBD000001401027000079
:100CB0000049014010B50121054800F047F801281E
:100CC00005D10121024800F031F800F01FFF10BDEE
:100CD000004A01401CB51348406B01210903084339
:100CE00010494863684600F055F8012149026846FA
:100CF000018000214180FF21F53181800021C180E8
:100D00006946094800F036F801221146064800F00D
:100D100026F8162000F09EFD0121034800F00AF895
:100D20001CBD000000000140004A0140C2698A4326
:100D3000C2617047002904D0026901231A4302618D
:100D400003E002695208520002617047024690694E
:100D50000840002801D0012070470020FCE7002A4D
:100D600003D043690B43436102E043698B43436112
:100D70007047000010B54A880B881A43CB881A4385
:100D80000369034C23401A4302618A88026010BD44
:100D900059F8FFFF002101804180491E8180704782
:100DA00070477047704770474A68002A04D1C2698B
:100DB0000B681A43C26167E0C2690B689A43C2615B
:100DC00010234A681A40102A4ED102680B681A4351
:100DD00002604A68112A07D102690B681A4302614E
:100DE000C2680B689A43C2604A68122A07D1C26877
:100DF0000B681A43C26002690B689A430261426A37
:100E00000B689A434262826A0B689A438262C26AA2
:100E10000B689A43C262026B0B689A430263812398
:100E20008A681A40812A03D1426A0B681A434262D7
:100E300082238A681A40822A03D1826A0B681A4385
:100E4000826284238A681A40842A03D1C26A0B68AA
:100E50001A43C26288238A681A40882A14D1026B16
:100E60000B681A4302630FE002680B689A43026042
:100E70004A68202A04D142680B689A43426003E022
:100E800042680B681A43426070470246106D084082
:100E9000002801D0012070470020FCE7012A01D181
:100EA000C16500E081657047704700BFFEE770478D
:100EB0007047704770470000F8B504460D46164667
:100EC00000BF0E480078002801D100F0E3FA00BF0F
:100ED000EFF310800746012080F3108800BF00BFA9
:100EE00032462946204600F00BF80090F8B280F315
:100EF000108800BF00BF0098F8BD0000300000203F
:100F0000F7B582B00746164603980190182078433B
:100F10001B494018009000984069002804D001281F
:100F200011D0022826D11EE0009800F0EBFA054609
:100F3000B54201D2002405E03446324601990098BA
:100F400000F063FC18E0009800F0DCFA0546B542BA
:100F500001D2284600E03046044622460199009816
:100F600000F053FC08E032460199009800F010FCB4
:100F7000044601E0002400BF00BF204605B0F0BDDC
:100F8000480000200FB438B5044606A800906A4611
:100F90002046059900F008F80546002000902846F4
:100FA00038BC08BC04B01847F7B59CB00D461446D1
:100FB00004A8179040201890002019901C981B90AE
:100FC00000201A9000BF2E786D1C002E00D139E150
:100FD000252E72D100270120169000BF2E78232ED7
:100FE00012D02B2E0CD02D2E02D0302E10D103E09B
:100FF000012007436D1C0EE0022007436D1C0AE030
:10100000042007436D1C06E0082007436D1C02E026
:101010000020169000BF00BF16980028DED1149063
:1010200000BF2E78302E01DB392E00DD08E06D1C6C
:101030000A21149848433146303940181490F0E79B
:1010400000BF002015902E782E2E11D16D1C00BFF0
:101050002E78302E01DB392E00DD08E06D1C0A21D0
:10106000159848433146303940181590F0E700BFD5
:101070002E7800BF6C2E01D0682E02D16D1C2E7808
:1010800000E000E0F6E700BF662E79D00CDC582EB9
:1010900040D004DC252E76D0462E73D179E0632E25
:1010A0000CD0642EF9D116E0702E59D0732E40D09A
:1010B000752E1FD0782EF0D12BE0BBE02168081DE3
:1010C0002060086816901698C0B2039017A803997C
:1010D00000F03CFBABE02168081D2060086816901A
:1010E0001498019700900A2217A8159B169900F0F2
:1010F00017FA9CE02168081D206008681690149873
:10110000019700900A2217A8159B169900F090FAF3
:101110008DE000BF2168081D2060086816901498B3
:1011200001970090102217A8159B169900F080FADD
:101130007DE02168081D20600868039000BF0398C7
:1011400006780398401C0390002E00D106E031463B
:1011500017A800F0FBFA1A980028F0DA00BF66E042
:101160002168081D206008681690002008210B46A1
:1011700010220091019017A8169900F059FA56E034
:1011800006E000E052E0252117A800F0DFFA4EE06B
:1011900000BF2068C01DC008C000014608302060A4
:1011A0000A6849681046FFF73DF90390002103984B
:1011B00000F018FF03D22D2117A800F0C7FA0398FA
:1011C000FFF718FC0290002801DB029801E002986A
:1011D000404216901498019700900A2217A8159B78
:1011E000169900F09DF92E2117A800F0AFFA1F49BB
:1011F000039800F021FF0190FFF7FCFB029000280C
:1012000001DB029801E00298404216907D21C9005E
:101210001698FFF760F81691149803230A22019795
:10122000009017A8169900F07BF900E000BF00BFFE
:101230006D1C03E0314617A800F088FA1A980028C0
:1012400000DBC0E600BF1A9800280BDD19980028C3
:1012500004D004A9199A1C98FFF72EFE19991A9820
:1012600040181A901A981FB0F0BD000000007A4490
:101270007047704710B500F0D7FD10BD0148024916
:101280000860704700127A001400002000B5FFF7D4
:10129000F5FF0B49098B4805400D0A498969C90AC0
:1012A000C9020143074A91610549498B8805800DB0
:1012B0001146096A890A89020143116200BD0000D2
:1012C000A007100000000140704770470246D06937
:1012D0000840002801D0012070470020FCE70000F2
:1012E000F0B589B005460C4600260020089000277E
:1012F000A088A1890843E1890843218A0843618ABB
:1013000008432968514A114008432860E088A18AAF
:1013100008436968C3229200914308436860A0882B
:1013200000282FD121680801FFF7CEFB0790A068A5
:10133000FFF7CAFB06900799FFF7ACFA0746384655
:10134000FFF77EFB86B23046FFF7BEFB39460190C1
:1013500000F0CAFE8321C905029000F06DFE0390E3
:10136000FFF76EFA00223A4B05910490FFF714FA4A
:1013700007910690FFF740FA80B20890EE60089857
:10138000286160E0A0880121490288421BD12168C0
:10139000C800FFF799FB0290A068FFF795FB01904A
:1013A0000299FFF777FA0390FFF74AFA0022284BD9
:1013B00005910490FFF7F0F907910690FFF71CFAEA
:1013C00086B2EE603FE0A0880121890288421BD1ED
:1013D00021688800FFF778FB0290A068FFF774FB94
:1013E00001900299FFF756FA0390FFF729FA0022BD
:1013F000174B05910490FFF7CFF907910690FFF77F
:10140000FBF986B2EE601EE02068FFF75DFB0290FC
:10141000A068FFF759FB8721C905009000F00CFE7A
:1014200001900299FFF736FA0390FFF709FA0022BC
:10143000074B05910490FFF7AFF907910690FFF76E
:10144000DBF986B2EE6009B0F0BD0000C0F8FFFF26
:101450000000E03F816270474B21C901016000211B
:101460008180C1808181C18101820321418200216B
:10147000818270477047704770470000042001491F
:10148000C8617047400400480420014988617047E2
:101490004004004810B5124C03202061606111A087
:1014A000A0611349E1610121890221620021A16249
:1014B0006162E1620BA020660E4961661021A1669F
:1014C00000212167E16661670BA1E01DFEF792FE36
:1014D0000AA12046FEF78EFE2020A07110BD00005C
:1014E000300000205465726D696E616C0000000070
:1014F000D8000020D80400205254540053454747D8
:101500004552000010B501460A69CB689A4204D8DA
:101510008C68641EE41AA01801E0D41A601E10BD85
:10152000FFB585B006460F460F9D0E9C002F01DAD1
:10153000784200E0384603900120049007E00799C4
:101540000398FEF7C8FE03900498401C0490079986
:1015500003988842F3DA04990898884201D90898D8
:101560000490002C06D0002F03DB04202840042820
:1015700000D1641E02202840002802D008980028CC
:1015800015D0E807C00F002811D1002C0FD008E0BB
:10159000641E2021304600F0D9F8F068002800DAF7
:1015A00004E0002C02D00498A042F1D300BFF06800
:1015B00000283ADB002F05DA7F422D21304600F06B
:1015C000C5F807E004202840042803D12B21304629
:1015D00000F0BCF8F068002827DB02202840022831
:1015E00018D1E807C00F002814D10898002811D19D
:1015F000002C0FD008E0641E3021304600F0A6F821
:10160000F068002800DA04E0002C02D00498A04220
:10161000F1D300BFF068002807DB0195009439463C
:101620003046089B079A00F003F809B0F0BD0000AF
:10163000FFB585B0064617461D460E9C06980290DB
:1016400001200390019007E039460298FEF739FE29
:1016500002900198401C01900298B842F4D201987F
:10166000854200D901950F98C007C00F00281DD1F1
:10167000002C1BD002210F980840022804D1002D15
:1016800002D13020009001E02020009008E0641E8C
:101690003046009900F05AF8F068002800DA04E0BB
:1016A000002C02D00198A042F1D300BFF0680028BE
:1016B00048DB0FE0012D01D96D1E08E00399069863
:1016C000FEF7FFFD04900498B84200D203E00398AF
:1016D00078430390EEE700BF00BF03990698FEF73A
:1016E000F0FD04900399049848430699081A06905F
:1016F000154A0498115C304600F028F8F06800287C
:1017000000DA07E039460398FEF7DBFD0390039803
:101710000028E2D100BF0F98C007C00F002811D0E9
:10172000002C0FD008E0641E2021304600F00EF897
:10173000F068002800DA04E0002C02D00198A042F2
:10174000F1D300BF09B0F0BDDA21000070B5044646
:101750000E46A568681C6168814206D3206846551C
:10176000681CA060E068401CE0606168A068884276
:101770000DD1A26821682069FFF79EFBA16888420D
:1017800003D00020C043E06001E00020A06070BDF5
:10179000F7B582B00446174600200190E56800BF07
:1017A000206900900098A84203D90098401B461E6B
:1017B00004E0A1680098281A401C0E1AA068401B7B
:1017C000B04201D9304601E0A068401B0646BE4247
:1017D00001D2304600E03846064661684819324674
:1017E0000399FEF72DFD0198801901900398801947
:1017F0000390BF1BAD19A068A84200D10025E56089
:10180000002FCDD1019805B0F0BDF7B582B00446E8
:101810001546E668A068871BAF4208D96168881939
:101820002A460399FEF70CFD7019E06010E001975D
:1018300061688819019A0399FEF702FDE81B01907F
:10184000039AD1196068019AFEF7FAFC0198E060EA
:1018500005B0F0BD002809DB00BF00BFC206D20EF4
:1018600001219140024A116000BF00BF7047000093
:1018700000E100E010B5002819DB1A4A03231B021F
:10188000D21883089B00D2588307DC0EFF23A340A5
:101890009A438B071B0E8407E40EA3401A43114B97
:1018A000032424021B198408A4001A5118E00E4ACC
:1018B00003071B0F083B9B089B00D2588307DC0ED5
:1018C000FF23A3409A438B071B0E8407E40EA3401B
:1018D0001A43054B0407240F083CA408A4001A511E
:1018E00010BD000000E100E01CED00E010B5114863
:1018F0000078002815D010480078002801D1012078
:1019000000E000200C49087008460078002801D04B
:10191000012000E00020024601210848FFF7BEFA3E
:1019200007E0002004490870002201210348FFF766
:10193000B5FA10BD02000020060000200008004893
:101940000EB52C48006B102108432A49086308464D
:10195000006B20210843274908630846006B40219B
:101960000843244908630020009001900290202041
:1019700001900120009069461F48FFF715FA2020CA
:1019800001901020009069461C48FFF70DFA2020B6
:1019900001900420009069461848FFF705FA2020BE
:1019A00001900220009069461348FFF7FDF92020BE
:1019B00001900220009069460920C006FFF7F4F963
:1019C000202001900820009069460C48FFF7ECF9B0
:1019D000102001902020009069460848FFF7E4F9A4
:1019E000112001908020009069460920C006FFF771
:1019F000DBF90EBD0000014000080048000400486B
:101A0000FFF744FCFFF79CFF00F0B8F900F094F9F1
:101A1000FFF760F9FFF722F900BFFEE770B5024655
:101A20000B460D48002113E0555C684000240BE094
:101A3000C507ED0F002D04D04510084E754028460F
:101A400000E04010651CECB2082CF1DB4D1CE9B243
:101A50009942E9DB70BD0000FFFF000001A000001B
:101A600010B520212348FFF710FA0446002C2CD192
:101A7000214908702148007800283AD12048007890
:101A8000401CC0B21E490870052832DB01201B49EA
:101A9000087000201A4908701A480078002801D1FF
:101AA000012000E00020174908700846007800284F
:101AB00005D0012202211448FFF7F0F919E00022B5
:101AC00002211148FFF7EAF913E000200C490870E1
:101AD0000A48007800280CD007480078401CC0B2A3
:101AE00005490870052804DB0020044908700249F4
:101AF000087010BD0004004804000020050000200C
:101B0000030000200200002000080048FEB55C48E9
:101B10000078002804D001281BD0022818D17EE0CC
:101B2000FFF7B2FC57480088401C56490880084619
:101B3000008802280CDB0020088001205049087032
:101B40000020514908705149087051A1FFF71AFA55
:101B500078E057484D490978445C4B4800780721A4
:101B6000091A20460841C507ED0F0026002D0FD0A9
:101B700044480088022802DAFFF786FC17E0414853
:101B80000088062802DAFFF779FC10E001260EE053
:101B90003C480088042802DAFFF776FC07E0394861
:101BA0000088062802DAFFF769FC00E00126002E13
:101BB00008D000203349088033480078401C32495F
:101BC000087004E02F480088401C2E4908802E48E9
:101BD0000078082822DB00202B4908702B48007869
:101BE000401C2A490870084600780C2816DB0020A3
:101BF0000870022022490870002022490880FFF75F
:101C000043FC2C4842680168806801920091029070
:101C1000684600F097F900F039F900BF12E0194862
:101C20000088282808DB002016490880144908701D
:101C300021A1FFF7A7F904E012480088401C1149D0
:101C4000088000BF00BF0E480078002816D10D485C
:101C50000088002812D123A1FFF794F9002406E0A0
:101C60001348025D24A10020FFF78CF9641C0C2CA2
:101C7000F6DB23A10020FFF785F900BFFEBD0000C1
:101C80000F000020100000200800002009000020A4
:101C9000456E7465722064617461207472616E7344
:101CA0006D697373696F6E2073746174650A0000E7
:101CB00018000020D021000049646C652070657216
:101CC000696F6420656E6465642E2052652D656EB3
:101CD000746572696E672073796E632073746174C2
:101CE000650A000053656E64696E67206E65772033
:101CF0006672616D653A2000253032582000000080
:101D00000A0000001FB508A30FCB6C460FC40B21BF
:101D10006846FFF783FE84B26846C47221120173DD
:101D20000D2100F055F81FBD0610B103000204009C
:101D3000000064000000000010B50C490C48006869
:101D4000FEF7BFFA0446601E0A49884200D90CE03B
:101D5000601E094948610321081FFFF78BFD002021
:101D6000054988610720086100BF10BD204E0000B2
:101D700014000020FFFFFF0000E000E000B587B086
:101D800001A8FFF769FB4B20C001019000216846C4
:101D9000018141810B4800680390684601824182BD
:101DA00081820321C182002101830748406B012108
:101DB000490208430449486301A90448FFF790FA1F
:101DC00007B000BD140000200000014000380140B1
:101DD00070B505460E46012208211148FFF75EF84E
:101DE00000240CE000BF01210E48FFF76FFA002825
:101DF000F9D0295D0B48FFF72DFB601CC4B2B4423B
:101E0000F0DB00BF02210748FFF760FA0028F9D095
:101E1000002202210920C006FFF740F870BD000033
:101E2000000400480038014010B509480088401CF3
:101E300007490880FFF714FE0548008805498842D5
:101E400004DB002002490880FFF750FD10BD0000B0
:101E50000000002030750000024613466B33D8B2F4
:101E60005423584003461933D8B2252358400B0752
:101E70001B0F1B18D8B26B23584003463B33D8B214
:101E80003A2358404006400E7047000070B50026C7
:101E900028480078401C2749087008460078002828
:101EA00004D125480078401C234908702248017855
:101EB00020480078FFF7D0FF044608201F4908702B
:101EC0001C48007848701C4800780007000E1C4928
:101ED00009780907090F084318498870184840789D
:101EE0000019C87016488078001908711448C07825
:101EF000001948711248007988711148C088001291
:101F00000019C8710E488079001908720C48007ACF
:101F1000001948720A48407A00198872002504E0C6
:101F20000648405D4640681CC5B20B2DF8DB0348EF
:101F3000C67270BD0D0000200E00002018000020A9
:101F40002400002010B504460A2221460148FEF76D
:101F500077F910BD2400002070B501250400ED07BD
:101F60004C4020D4441A01D2001B0919C60D4B0065
:101F7000F2B2FF2A29D01B0E2CD000020C02D31A79
:101F80002C43DC402843051910D2280A02D3401CF8
:101F90006D0611D0761EF6058019FF2A00DA70BD95
:101FA000C00DC00570BD694000F0B0F801200543C8
:101FB000C541521C761CE8E764089C40C901614099
:101FC0008900E7D10124A043E4E71B0E440200D0BE
:101FD000034870BD002AFCD1C00FC00770BD00BF10
:101FE0000000C07F01230200DB050A430DD4DA4262
:101FF00003D49A4207D488427047D84214D4D942B5
:1020000012D48842704780427047DA4203D59A4220
:10201000F9D5814270475B004200DA4204D24A009F
:10202000DA4201D28142704710B5024AFEF750FDF4
:1020300010BD00BF0900160470B5420064414B009A
:102040005C41120E39D01B0E38D0FF2A3CD0FF2B3A
:102050003AD040024902400A490A060045184E4358
:10206000000A090AD2184843ED017F3A0104731AA5
:102070004019190C4318990F04D001215B08490736
:102080005B1A521CD80904D3401CF50301D19D06EC
:1020900007D0FF2A08D2D50506D0E407204340190F
:1020A00070BD0125A843F4E7002A01DCE00770BDFC
:1020B0002402FF202043C00570BD1B0EFF2A03D061
:1020C000FF2B01D0E00770BDFF2645003606B54264
:1020D00006D84D00B54203D8D218FF2A00D0E7E752
:1020E000004870BD0000C07F70B50125ED07684055
:1020F00004004C4002D5694000F008F8FFF732FFB9
:1021000070B501250400ED074C4022D4441A02D2D8
:102110006C40001B0919C60D4B00F2B2FF2A4BD0D0
:102120001B0E50D000020C02D31A2C43DC40A843F3
:10213000051B05D5AD0019D36D08761E521E37D08C
:10214000F605280A01D2801970BD70416D0603D0D2
:1021500070BD6940FFF706FF9C40090261404900DD
:1021600001D0401E70BD0124A04370BD6D081DD07C
:1021700001202B0C01D12D0410302B0E01D12D028A
:1021800008302B0F01D12D01001DAB0F01D1AD0087
:10219000801CEB0F01D16D00401C6D00361A121A25
:1021A000680AF5054019012A02DB70BD002070BDE8
:1021B000C036300AC00770BD1B0E440201D1FF2B90
:1021C00000D1024870BD002AF0D070BD0000C07F71
:1021D000020000001F00000000203031323334358F
:1021E0003637383941424344454681828384858667
:1021F0008788898B8C8D8E8F919293959697999ADB
:102200009C9D9FA0A2A3A5A7A8AAACAEB0B2B3B54F
:10221000B7B9BCBEC0C2C5C7C9CCCED1D4D7D9DC32
:10222000DFE2E6E9ECF0F3F7FAFE00004C220000F2
:1022300000000020180000000401000064220000DB
:1022400018000020300900002001000000000000FC
:10225000000000000000000000000000000000007E
:0422600000127A00EE
:04000005000000C136
:00000001FF
