:020000040000FA
:10000000400900209D010000E7100000DF10000003
:1000100000000000000000000000000000000000E0
:10002000000000000000000000000000A514000017
:100030000000000000000000E9100000A91400000A
:1000400081170000E510000000000000D50F00003F
:10005000A7140000D70F0000D90F0000DB0F00002D
:100060000000000000000000000000000000000090
:10007000D10C0000450E00007D1700007F17000026
:10008000DD10000000000000000000000000000083
:10009000C1010000490E0000ED0E0000E310000059
:1000A00000000000C101000000000000C1010000CC
:1000B000FD14000000000000470E000000000000DA
:1000C00000F002F800F03EF80CA030C80838241800
:1000D0002D18A246671EAB4654465D46AC4201D180
:1000E00000F030F87E460F3E0FCCB6460126334274
:1000F00000D0FB1AA246AB46334318474025000008
:1001000060250000103A02D378C878C1FAD85207A7
:1001100001D330C830C101D504680C6070470000BD
:100120000023002400250026103A01D378C1FBD813
:10013000520700D330C100D50B6070471FB51FBDFB
:1001400010B510BD00F016FD1146FFF7F7FF01F0E6
:100150006FFE00F02EFD03B4FFF7F2FF03BC00F0CA
:1001600063FD000070B505460C46164602E00FCC54
:100170000FC5103E102EFAD2082E02D303CC03C5B1
:10018000083E042E07D301CC01C5361F03E02178B9
:100190002970641C6D1C761EF9D270BD0C480D4A86
:1001A000002100A1814200D902440B4802600B48A3
:1001B00080470B480047FEE7FEE7FEE7FEE7FEE765
:1001C000FEE7000007480849084A094B704700004D
:1001D000000000200000000008ED00E0C114000055
:1001E000C100000040050020400900204007002019
:1001F00040070020034670B502460B439B070FD112
:100200000E4CE60100E008C208C91D1B9D433542A3
:10021000F9D0D9B21170521C00290DD01B0AF8E791
:100220000B78491C1370521C002B05D00B78491C0D
:100230001370521C002BF3D170BD000001010101AD
:10024000F8B5042A2CD3830712D00B78491C03700D
:10025000401C521E83070BD00B78491C0370401CB6
:10026000521E830704D00B78491C0370401C521E99
:100270008B079B0F05D0C91ADF002023DE1B08C99E
:100280000AE0FFF76FFFF8BD1D4608C9FD401C4698
:10029000B4402C4310C0121F042AF5D2F308C91A27
:1002A000521EF0D40B78491C0370401C521EEAD435
:1002B0000B78491C0370401C012AE4D409780170B2
:1002C000F8BD002203098B422CD3030A8B4211D3C1
:1002D00000239C464EE003460B433CD400224308D7
:1002E0008B4231D303098B421CD3030A8B4201D3C7
:1002F00094463FE0C3098B4201D3CB01C01A52415F
:1003000083098B4201D38B01C01A524143098B42AE
:1003100001D34B01C01A524103098B4201D30B0197
:10032000C01A5241C3088B4201D3CB00C01A5241BC
:1003300083088B4201D38B00C01A524143088B4281
:1003400001D34B00C01A5241411A00D2014652411A
:10035000104670475DE0CA0F00D04942031000D339
:100360004042534000229C4603098B422DD3030A8E
:100370008B4212D3FC22890112BA030A8B420CD39E
:10038000890192118B4208D3890192118B4204D3C7
:1003900089013AD0921100E08909C3098B4201D347
:1003A000CB01C01A524183098B4201D38B01C01A81
:1003B000524143098B4201D34B01C01A52410309F8
:1003C0008B4201D30B01C01A5241C3088B4201D3A7
:1003D000CB00C01A524183088B4201D38B00C01A54
:1003E0005241D9D243088B4201D34B00C01A52412B
:1003F000411A00D20146634652415B10104601D3B8
:100400004042002B00D54942704763465B1000D341
:10041000404201B50020C046C04602BD704770474B
:10042000704700000246C80FC00781434B0030B53B
:100430004B405B009B0D20D01923DB06C91801231C
:100440001B05994220DB0324A40704251346AB4077
:100450000BD3002B04D1EB0613409B00E34204D4E2
:1004600001246407002312195941FF231B059942F7
:100470000BD2C9000143500F09E0CB0204D5014360
:100480000803024305D0054830BDFF21C9050843D4
:1004900030BD084607210905884330BD0000C07FF4
:1004A000F0B50C46871A9C410D46861A9D4103D231
:1004B000C01BA141D21963410D0D1F0DC94EEC1B8C
:1004C000AE435CD07F057F0D0026002F51D02D0557
:1004D000AC46A943DD020123ED0A1B051D43202381
:1004E0001B1B24D41746E740381871412F46E740BC
:1004F000CC199D402818314661410C0D27D161442B
:100500009A4013D50023401C594152000ED1400897
:10051000400001224B005205D34207D3052040077B
:10052000C14201D5B04900E0B0493046F0BD6B0092
:10053000002A00D001229A181F23203C1B1B01D542
:10054000002302E0E540281871410C0DD7D00124AA
:1005500024050919C407CD0740084908E40F2843BA
:100560006144002CD5D00024401C61419A40D0D178
:10057000CDE76A05520DD9D1C90FC907D5E79C4D02
:100580004E00002801D0012400E0002434195F004F
:10059000002A01D0012600E00026BE19954FAC428A
:1005A0000CD8AE420AD8B44206D001256D05EC4203
:1005B000BCD010461946F0BD9942FCD00020394607
:1005C000F0BDF0B51FB40C460F46811A9F41254679
:1005D000861A9D4106D20125ED076F40401ABC41A5
:1005E00052187B41210D1E0D8D1BAC467D4D8D4358
:1005F0007ED075056D0D7CD00D05AE46AC431B035A
:100600001B0B794D52429D41202366469B1B14D300
:100610001746F740381800260090744160462F4670
:100620000741E41900989D402818664116D4714688
:1006300071189A4025D5012320E093182A466A4173
:100640005200002B00D0521C1E23203E9B1B002B6F
:1006500061DD3541EE1728186641E8D5001876416E
:100660005B1C9A4000D3401C4B05F3181524E34053
:1006700010D3002B52D071467118D30FC01802D37B
:10068000491C05B0F0BD0123DB079A42F9D14008AF
:100690004000F6E701225205B21801D1002853D0DC
:1006A0000123CC0ADB029943891E002A08D1020CDF
:1006B00003D0020C0004103902E002460020203969
:1006C0000023550B05D112020823550B01D152010D
:1006D0000D23550C01D112011B1DD50C01D1920027
:1006E0009B1C150D01D152005B1C2025EE1A01E068
:1006F0002CE022E00546F54015439840CA1AE10770
:1007000069181305C918002ABBDA03204007081826
:10071000C10FC9070FE071466118B2E7F107400841
:100720000843711071444A000CD001235B059A42C2
:10073000A7D2C90FC9070020A3E74905490D26D153
:10074000002001E00028F4D100219AE7284D66003E
:10075000002801D0012100E0002171185F00002A6B
:1007600001D0012600E00026BE19224FA94210D870
:10077000AE420ED8B14208D001256D05E94206D03F
:100780001946A802414010467BE79C4201D0214611
:1007900077E70020394674E710B50C465C4005D574
:1007A0000124E4076340FFF70CFF10BDFFF778FE5C
:1007B00010BD30B40C465C4004D50124E40763400E
:1007C00030BC6DE630BCFCE670B50124E407614046
:1007D0000D465D4002D4FFF763FE70BD6340FFF736
:1007E000F0FE70BDFF0700000000F0FF0000F07F8A
:1007F0000000E0FF0000F87F0346CA02400D10B57C
:1008000010430A1504D00124E4072043002A05DB25
:100810000A4CA21A04D4D040FF2A00DD002010BDEB
:100820004A00002B01D0012000E000201018012216
:100830005205D042F2D8C817C04310BD1E040000B4
:100840000121C9050123411842001B06D3185B0E84
:100850000AD0C1100722D206891840075242D1425D
:1008600001D5520089187047090208D50146002AAF
:1008700003D0C10FC90700207047104670474202DD
:1008800002D0002002497047072109050143F4E71F
:100890000000F87FF0B5FF252D04C609C209FF2727
:1008A00004462E400137CB093E4348402A402B40A6
:1008B0000746002A6BD0002B69D0AA4267D0AB4212
:1008C00065D0002800DA32460125ED0529432C4386
:1008D00009022002090AD21A4B0C7F24E31A434C66
:1008E000000A7C44E35C7D242404121914145B0088
:1008F000A218884201D3521C00E0400049420C4635
:100900005C4324115C43DB016415E318040A5C4377
:10091000C502200D0C4644436419250A5D43230398
:10092000EC0C0D46654300030019EB184C42A34242
:1009300001D35B18401CD4052018002B07D05B00A6
:10094000C91804D3401C002901D1400840003F21B0
:1009500089048A4209D3002A08DC1106090F04D051
:10096000032149074018C00FC007F0BD0122410014
:10097000120689187F2252069142F6D205214907B4
:10098000C84201D59010F0BDFF20C005F0BD002F7A
:1009900000DA32461648AA4207D2AB4205D2190203
:1009A000090E17D0F80FC007F0BDFF2563002D0614
:1009B000AB42F9D84900A942F6D8AB4201D1A942CD
:1009C000F2D0A94201D1002101E061004908D0051F
:1009D0000843F0BD1102090EFBD0FF200243D005F1
:1009E000F0BD0A460146104654E70000141D000001
:1009F0000000C07F10B501469E240002CA15A3075F
:100A0000002A02D01843002A04DBA21A002A0CDDB7
:100A1000D04010BD1206120E01D140004008A21AAB
:100A200003D4D04040420028F3DDFF2248001206E4
:100A3000904201D9002010BDC817C043584010BDD6
:100A40000102C21504D00123DB071943002A0ADB87
:100A50009E239A1A02D40846D0407047FF224100D4
:100A60001206914201D900207047C017C043704759
:100A70001F22030C02D10F2200041CD0030E01D14F
:100A80000002083A030F01D10001121F830F01D1A8
:100A90008000921E002801DB4000521ED205511832
:100AA000021251181922904004D3491C002801D188
:100AB0004908490008467047C10FC90700D04042A5
:100AC000012292071143D3E701218907D0E70000F3
:100AD00010B5FF231B0644009C421DD84C009C42CD
:100AE0001AD80346124A0B4307D4401A02D3EFF335
:100AF000008010BDEFF3008010BD081A06D2EFF39E
:100B0000008001219043C907084302E0EFF3008011
:100B1000904380F3008810BD0D231B041A4204D0BB
:100B20001146002000F006F810BD00F01BF810BDC3
:100B300000000090C80212D54803400F002804D0DE
:100B4000C803C043012188407047EFF300800001D3
:100B5000000903210907084380F30088704700203B
:100B60007047000010B5024800F02BF810BD0000DF
:100B70000000C07F754600F053F8AE460500694698
:100B80005346C008C000854618B020B5FFF71AFBD1
:100B900060BC00274908B6460026C0C5C0C5C0C510
:100BA000C0C5C0C5C0C5C0C5C0C5403D49008D4613
:100BB000704710B50446C046C0462046FFF7CBFA42
:100BC00010BD10B50C461107090F092904D00A29D8
:100BD0000AD008290CD104E011460820FFF7AAFF2B
:100BE00006E0510606D501E0510601D50120C007F7
:100BF000214610BDD10607D501010909CC084907D6
:100C0000000E0006044309E0410F20024907000AD4
:100C10000143200E00061D22D14101430846E7E7AB
:100C200000487047DC04002001491820ABBEFEE7F5
:100C300026000200704700000D2803D00E2801D0C6
:100C40000F2806D10C4909680122520311430A4AB0
:100C500011600F2806D10849096810221143064A7D
:100C6000116007E00E2805D10349096820221143CD
:100C7000014A116070470000002401400249896B5D
:100C80008143014A916370470024014000B5064842
:100C90000068012108430449086000BF802000F07B
:100CA0000BF80028FAD000BD002401400148006A7A
:100CB00080B270470024014001460448C06B0840E0
:100CC000002801D0012070470020FCE700240140EB
:100CD0007047000082680169114342681143C2688D
:100CE00011434269114302681143174A1268174BB6
:100CF0001A401143144A1160114649684022914339
:100D000082691143104A5160C16900290BD0114614
:100D1000096903221202914301235B02C2691A434B
:100D20001143094A1161C16880290CD10849096B36
:100D300020221143064A11630649C96910229143D2
:100D40001031044AD16170470024014011C0FFFFF7
:100D5000000001400004004810B504462046083059
:100D6000FFF7B8FF2068FFF767FF01214903E06A3A
:100D7000884203D12046283000F03AF821686068A4
:100D80000843044949682F229143084301494860B8
:100D900010BD00000024014010B504462046FFF7B6
:100DA000DBFF034800680E2188430149086010BD3D
:100DB00000240140002806D0064989680122114319
:100DC000044A916005E00349896849084900014ADD
:100DD0009160704700240140002101604160816002
:100DE000C021C1600021016141618161C161704721
:100DF000026841681143124A52682F231B029A432A
:100E000011430F4A5160C26881681143026911435E
:100E10000B4A526B38239A431143094A5163416983
:100E20005161816991610F2212020168914205D1DD
:100E30000349096810221143014A116070470000FC
:100E4000002401407047704710B501210C4800F0A4
:100E500097F8012813D10121094800F081F80948C9
:100E60000088401C80B207490880032807DD002065
:100E7000088005480078002801D101F009F910BD6B
:100E800000490140000000201E0000201CB514484D
:100E9000406B01210903084311494863684600F08B
:100EA00093F80121490268460180002141800D49E3
:100EB00081800021C18069460B4800F075F801224D
:100EC0001146094800F065F80121162000F056FE91
:100ED000152000F043FE0121034800F045F81CBD39
:100EE00000000140102700000049014010B5012119
:100EF000054800F045F8012805D10121024800F01D
:100F00002FF801F01DF810BD004A01401CB5124831
:100F1000406B0121090308430F494863684600F00C
:100F200053F80121490268460180002141807D215A
:100F300081800021C1806946084800F035F801220F
:100F40001146064800F025F8162000F007FE0121A2
:100F5000024800F009F81CBD00000140004A0140B1
:100F6000C2698A43C2617047002904D00269012323
:100F70001A43026103E0026952085200026170479D
:100F8000024690690840002801D0012070470020E7
:100F9000FCE7002A03D043690B43436102E0436945
:100FA0008B4343617047000010B54A880B881A4391
:100FB000CB881A430369034C23401A4302618A8891
:100FC000026010BD59F8FFFF002101804180491ED9
:100FD0008180704770477047704770474A68002AA1
:100FE00004D1C2690B681A43C26167E0C2690B6829
:100FF0009A43C26110234A681A40102A4ED10268EF
:101000000B681A4302604A68112A07D102690B680B
:101010001A430261C2680B689A43C2604A68122A86
:1010200007D1C2680B681A43C26002690B689A4311
:101030000261426A0B689A434262826A0B689A4371
:101040008262C26A0B689A43C262026B0B689A435F
:10105000026381238A681A40812A03D1426A0B689D
:101060001A43426282238A681A40822A03D1826A22
:101070000B681A43826284238A681A40842A03D147
:10108000C26A0B681A43C26288238A681A40882A97
:1010900014D1026B0B681A4302630FE002680B68FD
:1010A0009A4302604A68202A04D142680B689A4336
:1010B000426003E042680B681A4342607047024690
:1010C000106D0840002801D0012070470020FCE787
:1010D000012A01D1C16500E081657047704700BFFA
:1010E000FEE770477047704770470000F8B5044648
:1010F0000D46164600BF0E480078002801D100F0CA
:101100004DFB00BFEFF310800746012080F31088ED
:1011100000BF00BF32462946204600F00BF8009081
:10112000F8B280F3108800BF00BF0098F8BD00003F
:1011300024000020F7B582B00746164603980190B8
:10114000182078431B4940180090009840690028F7
:1011500004D0012811D0022826D11EE0009800F00A
:1011600055FB0546B54201D2002405E0344632461F
:101170000199009800F0CDFC18E0009800F046FBC3
:101180000546B54201D2284600E0304604462246D4
:101190000199009800F0BDFC08E0324601990098E2
:1011A00000F07AFC044601E0002400BF00BF2046A6
:1011B00005B0F0BD3C0000200FB438B5044606A8C9
:1011C00000906A462046059900F008F80546002080
:1011D0000090284638BC08BC04B01847F7B59CB04E
:1011E0000D46144604A8179040201890002019902E
:1011F0001C981B9000201A9000BF2E786D1C002EAA
:1012000000D139E1252E72D100270120169000BFB0
:101210002E78232E12D02B2E0CD02D2E02D0302E35
:1012200010D103E0012007436D1C0EE002200743AC
:101230006D1C0AE0042007436D1C06E008200743EC
:101240006D1C02E00020169000BF00BF1698002819
:10125000DED1149000BF2E78302E01DB392E00DD58
:1012600008E06D1C0A211498484331463039401873
:101270001490F0E700BF002015902E782E2E11D18B
:101280006D1C00BF2E78302E01DB392E00DD08E00A
:101290006D1C0A2115984843314630394018159085
:1012A000F0E700BF2E7800BF6C2E01D0682E02D16F
:1012B0006D1C2E7800E000E0F6E700BF662E79D0C6
:1012C0000CDC582E40D004DC252E76D0462E73D16F
:1012D00079E0632E0CD0642EF9D116E0702E59D02F
:1012E000732E40D0752E1FD0782EF0D12BE0BBE0AE
:1012F0002168081D2060086816901698C0B20390F7
:1013000017A8039900F0A6FBABE02168081D206038
:10131000086816901498019700900A2217A8159B48
:10132000169900F081FA9CE02168081D2060086889
:1013300016901498019700900A2217A8159B1699E9
:1013400000F0FAFA8DE000BF2168081D20600868EF
:101350001690149801970090102217A8159B1699C3
:1013600000F0EAFA7DE02168081D2060086803901B
:1013700000BF039806780398401C0390002E00D10C
:1013800006E0314617A800F065FB1A980028F0DA4D
:1013900000BF66E02168081D2060086816900020E4
:1013A00008210B4610220091019017A8169900F011
:1013B000C3FA56E006E000E052E0252117A800F04D
:1013C00049FB4EE000BF2068C01DC008C0000146B8
:1013D000083020600A6849681046FFF723F8039038
:1013E0000021039801F000F803D22D2117A800F086
:1013F00031FB0398FFF7FEFA0290002801DB029808
:1014000001E00298404216901498019700900A2239
:1014100017A8159B169900F007FA2E2117A800F0BF
:1014200019FB1F49039801F009F80190FFF7E2FA50
:101430000290002801DB029801E0029840421690D9
:101440007D21C9001698FEF746FF169114980323D4
:101450000A220197009017A8169900F0E5F900E01C
:1014600000BF00BF6D1C03E0314617A800F0F2FA80
:101470001A98002800DBC0E600BF1A9800280BDD90
:101480001998002804D004A9199A1C98FFF72EFE79
:1014900019991A9840181A901A981FB0F0BD0000B8
:1014A00000007A447047704710B500F03FFF10BD50
:1014B000014802490860704700127A0020000020AD
:1014C00000B5FFF7F5FF0B49098B4805400D0A49A8
:1014D0008969C90AC9020143074A91610549498BD3
:1014E0008805800D1146096A890A89020143116243
:1014F00000BD0000A00710000000014008B5022157
:10150000204800F05AF8012831D102211D4800F08E
:1015100043F81D480078401C1B49087008460078B5
:101520001A490978884208DA19480068164A127878
:10153000815C144800F012F919E0002202211148E0
:1015400000F044F80020009002E00098401C009059
:1015500000981428F9DB00BF002210210920C006E2
:10156000FFF7B6FD00BF00200A49087000BF042144
:10157000044800F022F8012803D10421014800F0BA
:101580000BF808BD004400401D0000201C00002096
:10159000180000201E000020026A8A430262704781
:1015A00010B5002A03D003680B43036004E003680E
:1015B000CC43A4B22340036010BD0246D06908406A
:1015C000002801D0012070470020FCE710B5002A58
:1015D00003D083680B43836004E08368CC43A4B2E8
:1015E0002340836010BD0000F0B589B005460C466D
:1015F0000026002008900027A088A1890843E189DF
:101600000843218A0843618A08432968514A1140E6
:1016100008432860E088A18A08436968C3229200D1
:10162000914308436860A08800282FD121680801F1
:10163000FFF74AFA0790A068FFF746FA0690079965
:10164000FFF728F907463846FFF7FAF986B2304621
:10165000FFF73AFA3946019000F048FF8321C905A7
:10166000029000F0EBFE0390FFF7EAF800223A4BFD
:1016700005910490FFF790F807910690FFF7BCF8EA
:1016800080B20890EE600898286160E0A08801218F
:10169000490288421BD12168C800FFF715FA029061
:1016A000A068FFF711FA01900299FFF7F3F8039091
:1016B000FFF7C6F80022284B05910490FFF76CF85D
:1016C00007910690FFF798F886B2EE603FE0A08899
:1016D0000121890288421BD121688800FFF7F4F9B3
:1016E0000290A068FFF7F0F901900299FFF7D2F895
:1016F0000390FFF7A5F80022174B05910490FFF720
:101700004BF807910690FFF777F886B2EE601EE07F
:101710002068FFF7D9F90290A068FFF7D5F9872173
:10172000C905009000F08AFE01900299FFF7B2F817
:101730000390FFF785F80022074B05910490FFF70F
:101740002BF807910690FFF757F886B2EE6009B0C4
:10175000F0BD0000C0F8FFFF0000E03F816270476D
:101760004B21C901016000218180C1808181C1813B
:1017700001820321418200218182704770477047B6
:101780007047000004200149C861704740040048C8
:1017900004200149886170474004004810B5124C8C
:1017A00003202061606111A0A0611349E161012162
:1017B000890221620021A1626162E1620BA02066C0
:1017C0000E4961661021A16600212167E16661670B
:1017D0000BA1E01DFEF70EFD0AA12046FEF70AFD53
:1017E0002020A07110BD0000240000205465726DFF
:1017F000696E616C00000000CC000020CC04002069
:1018000052545400534547474552000010B5014615
:101810000A69CB689A4204D88C68641EE41AA0183E
:1018200001E0D41A601E10BDFFB585B006460F4614
:101830000F9D0E9C002F01DA784200E0384603909D
:101840000120049007E007990398FEF744FD0390F8
:101850000498401C0490079903988842F3DA04998D
:101860000898884201D908980490002C06D0002FCF
:1018700003DB04202840042800D1641E02202840F5
:10188000002802D00898002815D0E807C00F0028CB
:1018900011D1002C0FD008E0641E2021304600F04A
:1018A000D9F8F068002800DA04E0002C02D004988F
:1018B000A042F1D300BFF06800283ADB002F05DA20
:1018C0007F422D21304600F0C5F807E00420284073
:1018D000042803D12B21304600F0BCF8F068002822
:1018E00027DB02202840022818D1E807C00F002873
:1018F00014D10898002811D1002C0FD008E0641EE4
:101900003021304600F0A6F8F068002800DA04E044
:10191000002C02D00498A042F1D300BFF068002848
:1019200007DB0195009439463046089B079A00F082
:1019300003F809B0F0BD0000FFB585B006461746B4
:101940001D460E9C0698029001200390019007E02E
:1019500039460298FEF7B5FC02900198401C0190B0
:101960000298B842F4D20198854200D901950F98A7
:10197000C007C00F00281DD1002C1BD002210F98DA
:101980000840022804D1002D02D13020009001E04F
:101990002020009008E0641E3046009900F05AF8BC
:1019A000F068002800DA04E0002C02D00198A04280
:1019B000F1D300BFF068002848DB0FE0012D01D90A
:1019C0006D1E08E003990698FEF77BFC04900498CE
:1019D000B84200D203E0039878430390EEE700BFDB
:1019E00000BF03990698FEF76CFC049003990498D5
:1019F00048430699081A0690154A0498115C304627
:101A000000F028F8F068002800DA07E0394603986B
:101A1000FEF757FC039003980028E2D100BF0F980F
:101A2000C007C00F002811D0002C0FD008E0641EA2
:101A30002021304600F00EF8F068002800DA04E0BB
:101A4000002C02D00198A042F1D300BF09B0F0BD34
:101A5000EA25000070B504460E46A568681C61685A
:101A6000814206D320684655681CA060E068401C8F
:101A7000E0606168A06888420DD1A2682168206991
:101A8000FFF734FBA168884203D00020C043E06028
:101A900001E00020A06070BDF7B582B00446174693
:101AA00000200190E56800BF206900900098A842DE
:101AB00003D90098401B461E04E0A1680098281A2C
:101AC000401C0E1AA068401BB04201D9304601E00C
:101AD000A068401B0646BE4201D2304600E03846B0
:101AE00006466168481932460399FEF7A9FB01983A
:101AF00080190190039880190390BF1BAD19A0684D
:101B0000A84200D10025E560002FCDD1019805B095
:101B1000F0BDF7B582B004461546E668A068871B9D
:101B2000AF4208D9616888192A460399FEF788FBF5
:101B30007019E06010E0019761688819019A0399B3
:101B4000FEF77EFBE81B0190039AD1196068019AA9
:101B5000FEF776FB0198E06005B0F0BD002809DBD8
:101B600000BF00BFC206D20E01219140024A11609F
:101B700000BF00BF7047000000E100E010B5002882
:101B800019DB1A4A03231B02D21883089B00D25880
:101B90008307DC0EFF23A3409A438B071B0E8407A9
:101BA000E40EA3401A43114B032424021B1984089A
:101BB000A4001A5118E00E4A03071B0F083B9B08AC
:101BC0009B00D2588307DC0EFF23A3409A438B0768
:101BD0001B0E8407E40EA3401A43054B0407240F91
:101BE000083CA408A4001A5110BD000000E100E068
:101BF0001CED00E070B500F083F80546284600F0C3
:101C000093F80446AF208000844201DD012070BDBE
:101C10000020FCE710B5FFF7EDFF0446002C18D0BC
:101C200001201449087014480078002801D10120CF
:101C300000E000201049087008460078002801D014
:101C4000012000E00020024601210C48FFF740FA85
:101C50000EE00020084908700649087000220121A2
:101C60000648FFF735FA002202210448FFF730FA50
:101C700010BD0000040000200900002000080048FA
:101C800000B59DB01D48406B042108431B494863C3
:101C90000846006B10210843184908630020139080
:101CA0008020129012A90920C006FFF797F915A805
:101CB000FFF792F800201590032000021690C00054
:101CC0001790C020189001204003199000201A900E
:101CD0001B901C9015A8FEF7FDFF0420019000202A
:101CE0000290202215A903A8FEF73CFA01A8FFF7ED
:101CF00053F8FEF7CBFF1DB000BD0000000001400F
:101D000010B500240120FFF755F800BF0120FEF7B1
:101D1000D3FF0028FAD0FEF7C9FF04460120FEF7E2
:101D2000ADFF204610BD000010B5044603496143D5
:101D300008460349FEF7CFFA80B210BDE40C00005C
:101D4000FF0F00000EB53748006B102108433549DE
:101D500008630846006B202108433249086308469F
:101D6000006B402108432F49086300200090019038
:101D70000290202001900120009069462A48FFF738
:101D80002DF9002201212848FFF7A2F92020019017
:101D90001020009069462548FFF720F92020019087
:101DA0000420009069462148FFF718F9202001908F
:101DB0000220009069461C48FFF710F9002202211A
:101DC0001948FFF785F9202001900220009069460C
:101DD0000920C006FFF702F920200190082000909A
:101DE00069461248FFF7FAF8202001901020009071
:101DF00069460920C006FFF7F1F8002210210920EA
:101E0000C006FFF765F91020019020200090694678
:101E10000648FFF7E3F8002220210448FFF758F9AD
:101E20000EBD00000000014000080048000400480A
:101E3000FFF746FB00F044F9FFF784FFFFF720FFB0
:101E400000F060F9FFF762F8FFF720F800BFFEE747
:101E500070B502460B460D48002113E0555C684002
:101E600000240BE0C507ED0F002D04D04510084EEF
:101E70007540284600E04010651CECB2082CF1DBF0
:101E80004D1CE9B29942E9DB70BD0000FFFF000084
:101E900001A0000010B520212348FFF710F90446E7
:101EA000002C2CD1214908702148007800283AD113
:101EB00020480078401CC0B21E490870052832DB5B
:101EC00001201B49087000201A4908701A48007840
:101ED000002801D1012000E00020174908700846C1
:101EE0000078002805D0012202211448FFF7F0F8FD
:101EF00019E0002202211148FFF7EAF813E0002060
:101F00000C4908700A48007800280CD0074800786F
:101F1000401CC0B205490870052804DB00200449B4
:101F200008700249087010BD000400480700002036
:101F300008000020060000200400002000080048DF
:101F400070B54D480078002804D0012828D0022818
:101F500025D17DE0494800884949884202DAFFF7E7
:101F600017FC07E04548008845492031884201DADE
:101F7000FFF708FC41480088401C4049088008469B
:101F800000883F492031884209DB00203B49088016
:101F90003C4908703C49087001203749087069E0E5
:101FA0003A4838490978465C374800780721091AC9
:101FB00030460841C407E40F0025002C0FD02F48FD
:101FC0000088032802DAFFF7E3FB17E02B480088BC
:101FD000082802DAFFF7D6FB10E001250EE02748BB
:101FE0000088062802DAFFF7D3FB07E023480088C1
:101FF000082802DAFFF7C6FB00E00125002D21D0FA
:1020000000201E49088020480078401C1E490870A6
:102010000846007808281ADB002008701948007864
:10202000401C18490870084600780C280FDB002077
:102030000870022010490870002010490880FFF73E
:10204000A7FB04E00D480088401C0C49088011E003
:102050000A480088FF219131884205DB00200749AA
:1020600008800549087004E004480088401C0349C2
:10207000088000BF00BF70BD1400002012000020C7
:102080009E0300000B0000200A000020DE25000057
:102090003EB508A207CA6B4607C309216846FFF789
:1020A000D7FE044668464472211281720B2100F06B
:1020B000E3F83EBD0610B1010001020080000000FF
:1020C00010B50C490C480068FEF7FBF80446601E8A
:1020D0000A49884200D90CE0601E09494861032181
:1020E000081FFFF74BFD00200549886107200861A4
:1020F00000BF10BD204E000020000020FFFFFF00A9
:1021000000E000E000B589B05648806B80210843AC
:10211000544988630846006B1021084351490863FD
:102120000846006B202108434E4908632020019097
:102130001020009069460920C006FEF74FFF0920D5
:10214000C00680697021884310300921C906886162
:102150000846C069022188430921C906C8610846AA
:102160000068022188430921C906086008464068C2
:10217000022188430921C9064860084600690221F6
:1021800088430921C90608610846C06802218843BE
:102190000921C906C86034488069072109038843BA
:1021A000012109034018304988610846C0690821A7
:1021B00088432D49C86108460068082188430830D3
:1021C0002949086008464068082188432649486034
:1021D0000846006908218843234908610846C06809
:1021E000082188432049C86003A8FFF7B9FA4B20AB
:1021F000C001039000216846418381830321C1838C
:1022000000214182018219480068059003A91848FD
:10221000FFF7EAF9012202211548FFF7D7F9012259
:1022200004211348FFF7D2F91C20002809DB00BF66
:1022300000BFC206D20E012191400E4A116000BFBC
:1022400000BF00BF012203210948FFF7A9F900BF21
:10225000002210210920C006FEF73AFF00BF09B096
:1022600000BD0000000001400004004820000020E4
:102270000044004000E100E038B505460C46002C63
:1022800003D01B480078002807D01948037822465D
:1022900018A10020FEF790FF38BD204805602048B7
:1022A000047000201F49087001201149087000BF08
:1022B000012210210920C006FEF70AFF00BF0020FE
:1022C000009002E00098401C009000980A28F9DB7A
:1022D00012480068134A1278815C1348FFF73EFAEF
:1022E000012202211048FFF771F900BFD4E7000076
:1022F0001E0000205B554152545D2053656E6420E2
:1023000072656A65637465643A206C656E3D256428
:102310002C20627573793D25640A000018000020A6
:102320001C0000201D0000200044004010B509489A
:102330000088401C07490880FFF7ACFD054800886D
:102340000549884204DB002002490880FFF762FC4F
:1023500010BD000002000020983A000070B5012571
:102360000400ED074C4020D4441A01D2001B091987
:10237000C60D4B00F2B2FF2A29D01B0E2CD0000252
:102380000C02D31A2C43DC402843051910D2280A2A
:1023900002D3401C6D0611D0761EF6058019FF2A67
:1023A00000DA70BDC00DC00570BD694000F0B0F826
:1023B00001200543C541521C761CE8E764089C4097
:1023C000C90161408900E7D10124A043E4E71B0E65
:1023D000440200D0034870BD002AFCD1C00FC007E2
:1023E00070BD00BF0000C07F01230200DB050A436F
:1023F0000DD4DA4203D49A4207D488427047D842B7
:1024000014D4D94212D48842704780427047DA42CD
:1024100003D59A42F9D5814270475B004200DA4207
:1024200004D24A00DA4201D28142704710B5024A12
:10243000FEF74EFB10BD00BF0900160470B5420048
:1024400064414B005C41120E39D01B0E38D0FF2A7C
:102450003CD0FF2B3AD040024902400A490A06000C
:1024600045184E43000A090AD2184843ED017F3A45
:102470000104731A4019190C4318990F04D0012153
:102480005B0849075B1A521CD80904D3401CF503AA
:1024900001D19D0607D0FF2A08D2D50506D0E40752
:1024A0002043401970BD0125A843F4E7002A01DC50
:1024B000E00770BD2402FF202043C00570BD1B0E45
:1024C000FF2A03D0FF2B01D0E00770BDFF26450097
:1024D0003606B54206D84D00B54203D8D218FF2AB9
:1024E00000D0E7E7004870BD0000C07F70B501254F
:1024F000ED07684004004C4002D5694000F008F840
:10250000FFF732FF70B501250400ED074C4022D4DF
:10251000441A02D26C40001B0919C60D4B00F2B2DE
:10252000FF2A4BD01B0E50D000020C02D31A2C43B2
:10253000DC40A843051B05D5AD0019D36D08761EF8
:10254000521E37D0F605280A01D2801970BD70419D
:102550006D0603D070BD6940FFF706FF9C4009027D
:102560006140490001D0401E70BD0124A04370BDF0
:102570006D081DD001202B0C01D12D0410302B0E25
:1025800001D12D0208302B0F01D12D01001DAB0F01
:1025900001D1AD00801CEB0F01D16D00401C6D001E
:1025A000361A121A680AF5054019012A02DB70BDB5
:1025B000002070BDC036300AC00770BD1B0E44023B
:1025C00001D1FF2B00D1024870BD002AF0D070BDB0
:1025D0000000C07F020000001F0000000020086112
:1025E000000000001F0000E3029730313233343521
:1025F0003637383941424344454681828384858653
:102600008788898B8C8D8E8F919293959697999AC6
:102610009C9D9FA0A2A3A5A7A8AAACAEB0B2B3B53B
:10262000B7B9BCBEC0C2C5C7C9CCCED1D4D7D9DC1E
:10263000DFE2E6E9ECF0F3F7FAFE00005C260000CA
:10264000000000202400000004010000802600009B
:10265000240000201C0900002001000000000000F0
:10266000000000000000000000000000000000006A
:1026700000000000000000000000000000127A00CE
:04000005000000C136
:00000001FF
